:0400000080313428EF
:100008007E14803120007F08DA00911E30286508B0
:1000180003191928230019082000D9005908FD00E0
:100028007D0883317D2380312E280A30230019066C
:1000380003192C2819082000D9006408A03E86005E
:100048008701590881000130D9005908E4072E2892
:100058002000E401200091125A08FF007E100900D8
:100068008031362819308400813085003C30860084
:10007800233087000030FF00B4308431862480317B
:100088004B308400833085002030860000308700A4
:100098000030FF003230843186248031E401E501EC
:1000A800A0308400003085004030FE000030FF00A2
:1000B800843192247E10200082315E2A0F3400346D
:1000C800503443342C346334643433343134363468
:1000D800323464343034343464346434623438341C
:1000E8003634363431343034663434346434373466
:1000F80066346434373439343434643461343934EC
:100108003234663439342C34343432342C34303488
:1001180035340034503453342C3463346434333439
:1001280031343534323464343034343464346434FF
:100138006234383436343634313430346634343416
:10014800643437346634643437343934343464349A
:1001580061343934323466343934003453344434F5
:100168004D342C344E34693467346834743448342C
:10017800653472346F346E34003453344E342C3456
:100188004E346934673468347434483465347234AE
:100198006F346E340034533452342C3433343634A0
:1001A8003034303430343034303430340034533434
:1001B80053342C34303430343034303430343034F8
:1001C800303431340034533444344E342C345734BE
:1001D80054344F34523449344934003443346F343E
:1001E8006E346E3465346334743465346434003486
:1001F8004E342C34743465347334743400344D34D0
:100208004C3444345034003452342C3431340034B7
:1002180043344D3444340034453452345234003479
:1002280050345A34003441340034AA345A348F34A8
:1002380012341634D134AA345A348F3412344E342A
:100248003234AA345A348F3412344F342234AA3414
:100258005A348F3412345034C234AA345A348F3456
:1002680012345134D234AA345A348F3412345234BA
:10027800E234AA345A348F3412345334F234AA3460
:100288005A348F34123454348234AA345A348F3462
:10029800123455349234AA345A348F3412345634C2
:1002A800A234AA345A348F3412345734B234AA34AC
:1002B8005A348F34123458344234AA345A348F346E
:1002C800123459345234AA345A348F341234113413
:1002D800A134AA345A348F34123412349134AA34E3
:1002E8005A348F3412341434F134AA345A348F34D3
:1002F80012341534E134AA345A348F3412345E344B
:100308002234AA345A348F34123480341234AA3442
:100318005A348F34123481340234AA345A348F3424
:10032800123482343234AA345A348F341234833437
:1003380022340034003400340034003400340034F3
:100348000034003400340034003400340034003405
:1003580000340034003400340034003400340034F5
:1003680000340034003400340034003400340034E5
:1003780000340034003400340034003400340034D5
:1003880000340034003400340034003400340034C5
:10039800003420000E150530E3000F30E200F43081
:1003A800E100E10BD529E20BD529E30BD529200083
:1003B8008E156830E200E430E100E10BE129E20B40
:1003C800E129000014302000DB008130DC0002301D
:1003D800E1006108DD008331DE238131C130200076
:1003E800DB008030DC000D30E1006108DD00833186
:1003F800DE238131B2302000DB008030DC000E309B
:10040800E1006108DD008331DE238131E73020001F
:10041800DB008030DC000A30E1006108DD00833158
:10042800DE238131DB302000DB008030DC000B3044
:10043800E1006108DD008331DE238131CF30200007
:10044800DB008030DC000B30E1006108DD00833127
:10045800DE23813108302000DB008130DC000330EE
:10046800E1006108DD008331DE2381318E30200018
:10047800DB008030DC002330E1006108DD008331DF
:10048800DE23813164302000DB008030DC0029303D
:10049800E1006108DD008331DE238131083020006E
:1004A800DB008130DC000330E1006108DD008331CE
:1004B800DE2308008331AF2382318131CD2182319F
:1004C80052302100E2002C30E1004F30E000E00B18
:1004D8006B2AE10B6B2AE20B6B2A00320C302000EE
:1004E800DB008130DC0003302100E00060082000E0
:1004F800DD00A03084310A248231003A031D642AC9
:1005080010302000DB008130DC0003302100E000E7
:1005180060082000DD00A03084310A248231003ACE
:10052800031D642AF2302000DB008030DC00093033
:100538002100E00060082000DD00A03084310A249A
:100548008231003A0319C12AFC302000DB008030D8
:10055800DC0006302100E00060082000DD00833167
:10056800DE23823117302000DB008130DC00DD0122
:10057800DD0A8331DE238231642A03302000DB0068
:100588008130DC0004302100E00060082000DD003C
:10059800A03084310A248231003A0319642A2000E9
:1005A800E501E50A642A2000D201D3015308803A04
:1005B800F900803079020830031952020318F62A2C
:1005C80084313524823101302000D2070030D33DF8
:1005D8005308803AF9008030790208300319520232
:1005E800031CE42A1130FA009E30F900F90BFA2AAC
:1005F800FA0BFA2A00002000D401D5015508803AE8
:10060800F9007808803A7902031D0C2B7708540208
:100618000318482B20005408750786005508763DB6
:1006280087000108F9007908D800D601D7015708D2
:10063800803AF9008030790208300319560203180D
:10064800422B2000581C2C2B84316C2482312F2BF8
:1006580084317924823120005836F9007908D8008D
:100668000130D6070030D73D5708803AF90080306E
:100678007902083003195602031C252B013020008B
:10068800D4070030D53D022B84316C240800013496
:10069800D0340C3411340134AA345A348F3412341F
:1006A80002340034003400340034003400340034A0
:1006B8000034003400340034003400340034003492
:1006C8000034003400340034003400340034003482
:1006D8000034003400340034003400340034003472
:1006E8000034003400340034003400340034003462
:1006F8000034FC007C08FB000630FB36890B812B9C
:100708007B08031D922B3C30F5002330F6000630A1
:10071800F7000030F8008231D72283317C08FB00D3
:100728000630FB36890B952B7B03031D080005302B
:10073800FB007B08F0007C083F3984315B2483315F
:10074800203EF5000030F6000530F7000030F800D4
:100758008231D722080070302100990023008C01D3
:100768008E0121008C0120308E0020008C018E012A
:1007780014303D00A40015303C00A40024302300B0
:100788009E0090309D0010309B00200091122100A7
:1007980091160B178B17A3302000DD005730DC00B3
:1007A800A330DB00DB0BD62BDC0BD62BDD0BD62BDB
:1007B800000008002000E0015D0860020318FA2B21
:1007C800111EE42B5C08DF005B08DE0060085E0792
:1007D80084005F0803185F0A8500000823009A0058
:1007E80001302000DE005E08E007E02B111EFA2B26
:1007F8000A3023009A0068302000DF00E430DE0071
:10080800DE0B042CDF0B042C000008002000E000A5
:10081800E101E2016208803ADE0080305E02031DD9
:10082800172C5D0861020318332C20005B08610750
:1008380084005C08623D85000008DE0061086007EE
:10084800DF005F088600870101085E0603192E2C69
:10085800003008000130E1070030E23D0E2C013085
:100868000800F2016230840080308500003FF0000B
:10087800013FF1007108803A803C031D452C700847
:1008880072020318080020000C153530F000F00B38
:100898004B2C20000C110130F0007008F207623078
:1008A800840080308500003FF000013F3D2CF300BC
:1008B800F201731C632C7008F1007108F207031031
:1008C800F00D0310F30C7308031D5D2C720808006B
:1008D8008431352484310D30F4007630F300F30B85
:1008E800732CF40B732C00000800843135248431F8
:1008F8000530F4002630F300F30B802CF40B802C29
:1009080000000800FE0012001E000130FE02003048
:10091800FF3B7F087E0403190034872C64008001A4
:1009280001310130FE020030FF3B7F087E040319CD
:040938000034932CC8
:020000040001F9
:04000E0084CFFBFBA5
:00000001FF
